:100000000C9434000C9446000C9446000C9446006A
:100010000C9446000C9446000C9446000C94460048
:100020000C9446000C9446000C9446000C94460038
:100030000C9446000C9446000C9446000C94460028
:100040000C9446000C9446000C9446000C94460018
:100050000C9446000C946E000C9446000C944600E0
:100060000C94B6000C94460011241FBECFEFD8E0CC
:10007000DEBFCDBF21E0A0E0B1E001C01D92A43001
:10008000B207E1F70E94A8000C94F5000C94000060
:10009000ECE7F0E0108280818064808380818F773C
:1000A0008083808180628083EAE7F0E01082808133
:1000B000876080838081886080838081806880837E
:1000C0000895ECE7F0E09081987F8770892B80831A
:1000D000EAE7F0E080818064808308951F920F92A8
:1000E0000FB60F9211242F933F934F935F936F930B
:1000F0007F938F939F93AF93BF93EF93FF938091E1
:100100000001811106C08091790080930101109255
:100110000001809100010E946100FF91EF91BF9169
:10012000AF919F918F917F916F915F914F913F918F
:100130002F910F900FBE0F901F90189597B19F7C35
:1001400097B9880F8093BA0085E48093BC00089526
:100150000E94480080E00E94610080E30E949E00AF
:1001600078948091010180930201FBCF1F920F923E
:100170000FB60F9211248F93EF93FF938091B900E4
:100180008C7F803899F028F4803651F0803741F028
:100190001FC0883AA9F0883B99F08039C9F406C09D
:1001A000ECEBF0E080818068808317C08091BB0019
:1001B00080930301ECEBF0E08081806880830DC0C8
:1001C000809102018093BB0085EC8093BC0005C048
:1001D000ECEBF0E0808180698083FF91EF918F915B
:0E01E0000F900FBE0F901F901895F894FFCF50
:00000001FF
